{
  "contracts/Bridge.sol": {
    "SaniksinBridge": {
      "abi": [
        {
          "inputs": [],
          "stateMutability": "nonpayable",
          "type": "constructor"
        },
        {
          "inputs": [
            {
              "internalType": "address",
              "name": "target",
              "type": "address"
            }
          ],
          "name": "AddressEmptyCode",
          "type": "error"
        },
        {
          "inputs": [
            {
              "internalType": "address",
              "name": "account",
              "type": "address"
            }
          ],
          "name": "AddressInsufficientBalance",
          "type": "error"
        },
        {
          "inputs": [],
          "name": "Bridge__AmountBelowMinimum",
          "type": "error"
        },
        {
          "inputs": [],
          "name": "Bridge__ChainIdNotAllowed",
          "type": "error"
        },
        {
          "inputs": [],
          "name": "Bridge__OnlyAuthorizedSigners",
          "type": "error"
        },
        {
          "inputs": [],
          "name": "Bridge__TokenBurnProblem",
          "type": "error"
        },
        {
          "inputs": [],
          "name": "Bridge__TokenMintProblem",
          "type": "error"
        },
        {
          "inputs": [],
          "name": "Bridge__TokenNotAllowed",
          "type": "error"
        },
        {
          "inputs": [],
          "name": "EnforcedPause",
          "type": "error"
        },
        {
          "inputs": [],
          "name": "ExpectedPause",
          "type": "error"
        },
        {
          "inputs": [],
          "name": "FailedInnerCall",
          "type": "error"
        },
        {
          "inputs": [
            {
              "internalType": "address",
              "name": "owner",
              "type": "address"
            }
          ],
          "name": "OwnableInvalidOwner",
          "type": "error"
        },
        {
          "inputs": [
            {
              "internalType": "address",
              "name": "account",
              "type": "address"
            }
          ],
          "name": "OwnableUnauthorizedAccount",
          "type": "error"
        },
        {
          "inputs": [],
          "name": "ReentrancyGuardReentrantCall",
          "type": "error"
        },
        {
          "inputs": [
            {
              "internalType": "address",
              "name": "token",
              "type": "address"
            }
          ],
          "name": "SafeERC20FailedOperation",
          "type": "error"
        },
        {
          "anonymous": false,
          "inputs": [
            {
              "indexed": true,
              "internalType": "uint256",
              "name": "chainId",
              "type": "uint256"
            },
            {
              "indexed": true,
              "internalType": "bool",
              "name": "status",
              "type": "bool"
            }
          ],
          "name": "ChainAllowed",
          "type": "event"
        },
        {
          "anonymous": false,
          "inputs": [
            {
              "indexed": false,
              "internalType": "address",
              "name": "from",
              "type": "address"
            },
            {
              "indexed": true,
              "internalType": "address",
              "name": "recipient",
              "type": "address"
            },
            {
              "indexed": true,
              "internalType": "address",
              "name": "token",
              "type": "address"
            },
            {
              "indexed": false,
              "internalType": "uint256",
              "name": "chainId",
              "type": "uint256"
            },
            {
              "indexed": true,
              "internalType": "uint256",
              "name": "amount",
              "type": "uint256"
            }
          ],
          "name": "DepositFromUser",
          "type": "event"
        },
        {
          "anonymous": false,
          "inputs": [
            {
              "indexed": true,
              "internalType": "address",
              "name": "previousOwner",
              "type": "address"
            },
            {
              "indexed": true,
              "internalType": "address",
              "name": "newOwner",
              "type": "address"
            }
          ],
          "name": "OwnershipTransferred",
          "type": "event"
        },
        {
          "anonymous": false,
          "inputs": [
            {
              "indexed": false,
              "internalType": "address",
              "name": "account",
              "type": "address"
            }
          ],
          "name": "Paused",
          "type": "event"
        },
        {
          "anonymous": false,
          "inputs": [
            {
              "indexed": false,
              "internalType": "address",
              "name": "singer",
              "type": "address"
            },
            {
              "indexed": true,
              "internalType": "address",
              "name": "recipient",
              "type": "address"
            },
            {
              "indexed": true,
              "internalType": "address",
              "name": "token",
              "type": "address"
            },
            {
              "indexed": true,
              "internalType": "uint256",
              "name": "amount",
              "type": "uint256"
            }
          ],
          "name": "SignerMintToUser",
          "type": "event"
        },
        {
          "anonymous": false,
          "inputs": [
            {
              "indexed": true,
              "internalType": "address",
              "name": "signer",
              "type": "address"
            },
            {
              "indexed": true,
              "internalType": "bool",
              "name": "status",
              "type": "bool"
            }
          ],
          "name": "SignerStatusUpdated",
          "type": "event"
        },
        {
          "anonymous": false,
          "inputs": [
            {
              "indexed": true,
              "internalType": "address",
              "name": "token",
              "type": "address"
            },
            {
              "indexed": true,
              "internalType": "bool",
              "name": "status",
              "type": "bool"
            },
            {
              "indexed": true,
              "internalType": "uint256",
              "name": "bridgeMinAmount",
              "type": "uint256"
            }
          ],
          "name": "TokenAllowed",
          "type": "event"
        },
        {
          "anonymous": false,
          "inputs": [
            {
              "indexed": false,
              "internalType": "address",
              "name": "account",
              "type": "address"
            }
          ],
          "name": "Unpaused",
          "type": "event"
        },
        {
          "inputs": [
            {
              "internalType": "address",
              "name": "from",
              "type": "address"
            },
            {
              "internalType": "address",
              "name": "recipient",
              "type": "address"
            },
            {
              "internalType": "address",
              "name": "token",
              "type": "address"
            },
            {
              "internalType": "uint256",
              "name": "chainId",
              "type": "uint256"
            },
            {
              "internalType": "uint256",
              "name": "amount",
              "type": "uint256"
            }
          ],
          "name": "bridgeTokens",
          "outputs": [],
          "stateMutability": "nonpayable",
          "type": "function"
        },
        {
          "inputs": [
            {
              "internalType": "uint256",
              "name": "chainId",
              "type": "uint256"
            }
          ],
          "name": "isChainAllowed",
          "outputs": [
            {
              "internalType": "bool",
              "name": "allowedChain",
              "type": "bool"
            }
          ],
          "stateMutability": "view",
          "type": "function"
        },
        {
          "inputs": [
            {
              "internalType": "address",
              "name": "tokenContract",
              "type": "address"
            }
          ],
          "name": "isTokenAllowed",
          "outputs": [
            {
              "internalType": "bool",
              "name": "allowed",
              "type": "bool"
            },
            {
              "internalType": "uint256",
              "name": "minAmount",
              "type": "uint256"
            }
          ],
          "stateMutability": "view",
          "type": "function"
        },
        {
          "inputs": [
            {
              "internalType": "address",
              "name": "recipient",
              "type": "address"
            },
            {
              "internalType": "address",
              "name": "token",
              "type": "address"
            },
            {
              "internalType": "uint256",
              "name": "amount",
              "type": "uint256"
            }
          ],
          "name": "mintTokenToUserAfterBridge",
          "outputs": [],
          "stateMutability": "nonpayable",
          "type": "function"
        },
        {
          "inputs": [],
          "name": "owner",
          "outputs": [
            {
              "internalType": "address",
              "name": "",
              "type": "address"
            }
          ],
          "stateMutability": "view",
          "type": "function"
        },
        {
          "inputs": [],
          "name": "pause",
          "outputs": [],
          "stateMutability": "nonpayable",
          "type": "function"
        },
        {
          "inputs": [],
          "name": "paused",
          "outputs": [
            {
              "internalType": "bool",
              "name": "",
              "type": "bool"
            }
          ],
          "stateMutability": "view",
          "type": "function"
        },
        {
          "inputs": [],
          "name": "renounceOwnership",
          "outputs": [],
          "stateMutability": "nonpayable",
          "type": "function"
        },
        {
          "inputs": [
            {
              "internalType": "uint256",
              "name": "chainId",
              "type": "uint256"
            },
            {
              "internalType": "bool",
              "name": "allowed",
              "type": "bool"
            }
          ],
          "name": "setAllowedChain",
          "outputs": [],
          "stateMutability": "nonpayable",
          "type": "function"
        },
        {
          "inputs": [
            {
              "internalType": "address",
              "name": "token",
              "type": "address"
            },
            {
              "internalType": "bool",
              "name": "allowed",
              "type": "bool"
            },
            {
              "internalType": "uint256",
              "name": "bridgeMinAmount",
              "type": "uint256"
            }
          ],
          "name": "setAllowedToken",
          "outputs": [],
          "stateMutability": "nonpayable",
          "type": "function"
        },
        {
          "inputs": [
            {
              "internalType": "address",
              "name": "account",
              "type": "address"
            },
            {
              "internalType": "bool",
              "name": "enabled",
              "type": "bool"
            }
          ],
          "name": "setSigner",
          "outputs": [],
          "stateMutability": "nonpayable",
          "type": "function"
        },
        {
          "inputs": [
            {
              "internalType": "address",
              "name": "accountAddress",
              "type": "address"
            }
          ],
          "name": "signers",
          "outputs": [
            {
              "internalType": "bool",
              "name": "isSigner",
              "type": "bool"
            }
          ],
          "stateMutability": "view",
          "type": "function"
        },
        {
          "inputs": [
            {
              "internalType": "address",
              "name": "newOwner",
              "type": "address"
            }
          ],
          "name": "transferOwnership",
          "outputs": [],
          "stateMutability": "nonpayable",
          "type": "function"
        },
        {
          "inputs": [],
          "name": "unpause",
          "outputs": [],
          "stateMutability": "nonpayable",
          "type": "function"
        }
      ],
      "evm": {
        "bytecode": {
          "linkReferences": {},
          "object": "6080806040523460765733156063575f543360018060a01b0382167f8be0079c531659141344cd1fd0a4f28419497f9722a3daafe3b4186f6b6457e05f80a36001600160a81b0319163360ff60a01b1916175f55600180556109b3908161007b8239f35b631e4fbdf760e01b5f525f60045260245ffd5b5f80fdfe60806040526004361015610011575f80fd5b5f3560e01c806331cb6105146107ee5780633f4ba83a146107825780635b45b88d146107025780635c975abb146106de578063715018a614610687578063736c0d5b1461064a5780638456cb59146105ea5780638da5cb5b146105c35780639b400faa14610594578063ab496f671461047f578063cf222eae146101f0578063dafca14814610182578063f2fde38b146100fd5763f9eaee0d146100b3575f80fd5b346100f95760203660031901126100f9576001600160a01b036100d4610867565b165f5260036020526040805f20600160ff825416910154825191151582526020820152f35b5f80fd5b346100f95760203660031901126100f957610116610867565b61011e6108dc565b6001600160a01b0316801561016f575f80546001600160a01b03198116831782556001600160a01b0316907f8be0079c531659141344cd1fd0a4f28419497f9722a3daafe3b4186f6b6457e09080a3005b631e4fbdf760e01b5f525f60045260245ffd5b346100f95760403660031901126100f95760043561019e610893565b6101a66108dc565b815f5260046020526101c78160405f209060ff801983541691151516179055565b1515907fa0924ee18bdbb8e9794da3d3b04cabf7f1de30e5c80cd76aade77edd46ce285d5f80a3005b346100f95760a03660031901126100f957610209610867565b61021161087d565b6044356001600160a01b0381169291908390036100f9576064359060843592610238610902565b600260015414610470576002600155845f52600360205260ff60405f2054161561046157845f526003602052600160405f200154841061045257825f52600460205260ff60405f2054161561044357604080516001600160a01b03838116825260208201959095525f9485948793899391909216917ffce60d6afe1c2e85df75301b872fb0a7e5f4a4bc87473dd2801024e9f6d91e4791a46040516323b872dd60e01b602082019081526001600160a01b0390921660248201523060448201526064808201869052815261030d6084826108a2565b519082865af13d15610437573d67ffffffffffffffff81116104235761035591604051916103456020601f19601f84011601846108a2565b82523d5f602084013e5b8461091f565b8051908115159182610408575b50506103f557604051632770a7eb60e21b8152306004820152602481019190915290602090829060449082905f905af19081156103ea575f916103bb575b50156103ac5760018055005b632786ebf360e11b5f5260045ffd5b6103dd915060203d6020116103e3575b6103d581836108a2565b8101906108c4565b816103a0565b503d6103cb565b6040513d5f823e3d90fd5b50635274afe760e01b5f5260045260245ffd5b61041b92506020809183010191016108c4565b158380610362565b634e487b7160e01b5f52604160045260245ffd5b6103559060609061034f565b636747a72160e11b5f5260045ffd5b63d32e0c5160e01b5f5260045ffd5b63048da25360e01b5f5260045ffd5b633ee5aeb560e01b5f5260045ffd5b346100f95760603660031901126100f957610498610867565b6104a061087d565b6044356104ab610902565b335f52600260205260ff60405f205416156105855760405133815261053d936020936001600160a01b039081169284918491908416907fbb34554ec388e2ba6e0ec1ef6a4e36bed662bd388fddf2b01482db2f06a217fb908890a46040516340c10f1960e01b81526001600160a01b0390911660048201526024810192909252909283919082905f9082906044820190565b03925af19081156103ea575f91610566575b501561055757005b631d5feebb60e21b5f5260045ffd5b61057f915060203d6020116103e3576103d581836108a2565b8161054f565b63fe41f94760e01b5f5260045ffd5b346100f95760203660031901126100f9576004355f526004602052602060ff60405f2054166040519015158152f35b346100f9575f3660031901126100f9575f546040516001600160a01b039091168152602090f35b346100f9575f3660031901126100f9576106026108dc565b61060a610902565b5f805460ff60a01b1916600160a01b1790556040513381527f62e78cea01bee320cd4e420270b5ea74000d11b0c9f74754ebdbfc544b05a25890602090a1005b346100f95760203660031901126100f9576001600160a01b0361066b610867565b165f526002602052602060ff60405f2054166040519015158152f35b346100f9575f3660031901126100f95761069f6108dc565b5f80546001600160a01b0319811682556001600160a01b03167f8be0079c531659141344cd1fd0a4f28419497f9722a3daafe3b4186f6b6457e08280a3005b346100f9575f3660031901126100f957602060ff5f5460a01c166040519015158152f35b346100f95760603660031901126100f95761071b610867565b610723610893565b6044359161072f6108dc565b6001600160a01b03165f818152600360205260408120805460ff191660ff9415159485161781556001018490557fefa900ef438b733efc4eadcc27cc14bfccb8608cef912f558f3c86a4076099d19080a4005b346100f9575f3660031901126100f95761079a6108dc565b5f5460ff8160a01c16156107df5760ff60a01b19165f556040513381527f5db9ee0a495bf2e6ff9c91a7834c1ba4fdd244a5e8aa4e537bd38aeae4b073aa90602090a1005b638dfc202b60e01b5f5260045ffd5b346100f95760403660031901126100f957610807610867565b61080f610893565b906108186108dc565b6001600160a01b03165f818152600260205260409020805460ff191660ff84151516179055901515907faa9d33808a902414231ba2e4657b33f5cee83469964bc14260b5c4bb543782095f80a3005b600435906001600160a01b03821682036100f957565b602435906001600160a01b03821682036100f957565b6024359081151582036100f957565b90601f8019910116810190811067ffffffffffffffff82111761042357604052565b908160209103126100f9575180151581036100f95790565b5f546001600160a01b031633036108ef57565b63118cdaa760e01b5f523360045260245ffd5b60ff5f5460a01c1661091057565b63d93c066560e01b5f5260045ffd5b90610943575080511561093457805190602001fd5b630a12f52160e11b5f5260045ffd5b81511580610974575b610954575090565b639996b31560e01b5f9081526001600160a01b0391909116600452602490fd5b50803b1561094c56fea26469706673582212208ab40795376110fdf9d0f263e17b6f7a5708e59e4f4fa1c55750ca6ac26634b064736f6c634300081b0033",
          "opcodes": "PUSH1 0x80 DUP1 PUSH1 0x40 MSTORE CALLVALUE PUSH1 0x76 JUMPI CALLER ISZERO PUSH1 0x63 JUMPI PUSH0 SLOAD CALLER PUSH1 0x1 DUP1 PUSH1 0xA0 SHL SUB DUP3 AND PUSH32 0x8BE0079C531659141344CD1FD0A4F28419497F9722A3DAAFE3B4186F6B6457E0 PUSH0 DUP1 LOG3 PUSH1 0x1 PUSH1 0x1 PUSH1 0xA8 SHL SUB NOT AND CALLER PUSH1 0xFF PUSH1 0xA0 SHL NOT AND OR PUSH0 SSTORE PUSH1 0x1 DUP1 SSTORE PUSH2 0x9B3 SWAP1 DUP2 PUSH2 0x7B DUP3 CODECOPY RETURN JUMPDEST PUSH4 0x1E4FBDF7 PUSH1 0xE0 SHL PUSH0 MSTORE PUSH0 PUSH1 0x4 MSTORE PUSH1 0x24 PUSH0 REVERT JUMPDEST PUSH0 DUP1 REVERT INVALID PUSH1 0x80 PUSH1 0x40 MSTORE PUSH1 0x4 CALLDATASIZE LT ISZERO PUSH2 0x11 JUMPI PUSH0 DUP1 REVERT JUMPDEST PUSH0 CALLDATALOAD PUSH1 0xE0 SHR DUP1 PUSH4 0x31CB6105 EQ PUSH2 0x7EE JUMPI DUP1 PUSH4 0x3F4BA83A EQ PUSH2 0x782 JUMPI DUP1 PUSH4 0x5B45B88D EQ PUSH2 0x702 JUMPI DUP1 PUSH4 0x5C975ABB EQ PUSH2 0x6DE JUMPI DUP1 PUSH4 0x715018A6 EQ PUSH2 0x687 JUMPI DUP1 PUSH4 0x736C0D5B EQ PUSH2 0x64A JUMPI DUP1 PUSH4 0x8456CB59 EQ PUSH2 0x5EA JUMPI DUP1 PUSH4 0x8DA5CB5B EQ PUSH2 0x5C3 JUMPI DUP1 PUSH4 0x9B400FAA EQ PUSH2 0x594 JUMPI DUP1 PUSH4 0xAB496F67 EQ PUSH2 0x47F JUMPI DUP1 PUSH4 0xCF222EAE EQ PUSH2 0x1F0 JUMPI DUP1 PUSH4 0xDAFCA148 EQ PUSH2 0x182 JUMPI DUP1 PUSH4 0xF2FDE38B EQ PUSH2 0xFD JUMPI PUSH4 0xF9EAEE0D EQ PUSH2 0xB3 JUMPI PUSH0 DUP1 REVERT JUMPDEST CALLVALUE PUSH2 0xF9 JUMPI PUSH1 0x20 CALLDATASIZE PUSH1 0x3 NOT ADD SLT PUSH2 0xF9 JUMPI PUSH1 0x1 PUSH1 0x1 PUSH1 0xA0 SHL SUB PUSH2 0xD4 PUSH2 0x867 JUMP JUMPDEST AND PUSH0 MSTORE PUSH1 0x3 PUSH1 0x20 MSTORE PUSH1 0x40 DUP1 PUSH0 KECCAK256 PUSH1 0x1 PUSH1 0xFF DUP3 SLOAD AND SWAP2 ADD SLOAD DUP3 MLOAD SWAP2 ISZERO ISZERO DUP3 MSTORE PUSH1 0x20 DUP3 ADD MSTORE RETURN JUMPDEST PUSH0 DUP1 REVERT JUMPDEST CALLVALUE PUSH2 0xF9 JUMPI PUSH1 0x20 CALLDATASIZE PUSH1 0x3 NOT ADD SLT PUSH2 0xF9 JUMPI PUSH2 0x116 PUSH2 0x867 JUMP JUMPDEST PUSH2 0x11E PUSH2 0x8DC JUMP JUMPDEST PUSH1 0x1 PUSH1 0x1 PUSH1 0xA0 SHL SUB AND DUP1 ISZERO PUSH2 0x16F JUMPI PUSH0 DUP1 SLOAD PUSH1 0x1 PUSH1 0x1 PUSH1 0xA0 SHL SUB NOT DUP2 AND DUP4 OR DUP3 SSTORE PUSH1 0x1 PUSH1 0x1 PUSH1 0xA0 SHL SUB AND SWAP1 PUSH32 0x8BE0079C531659141344CD1FD0A4F28419497F9722A3DAAFE3B4186F6B6457E0 SWAP1 DUP1 LOG3 STOP JUMPDEST PUSH4 0x1E4FBDF7 PUSH1 0xE0 SHL PUSH0 MSTORE PUSH0 PUSH1 0x4 MSTORE PUSH1 0x24 PUSH0 REVERT JUMPDEST CALLVALUE PUSH2 0xF9 JUMPI PUSH1 0x40 CALLDATASIZE PUSH1 0x3 NOT ADD SLT PUSH2 0xF9 JUMPI PUSH1 0x4 CALLDATALOAD PUSH2 0x19E PUSH2 0x893 JUMP JUMPDEST PUSH2 0x1A6 PUSH2 0x8DC JUMP JUMPDEST DUP2 PUSH0 MSTORE PUSH1 0x4 PUSH1 0x20 MSTORE PUSH2 0x1C7 DUP2 PUSH1 0x40 PUSH0 KECCAK256 SWAP1 PUSH1 0xFF DUP1 NOT DUP4 SLOAD AND SWAP2 ISZERO ISZERO AND OR SWAP1 SSTORE JUMP JUMPDEST ISZERO ISZERO SWAP1 PUSH32 0xA0924EE18BDBB8E9794DA3D3B04CABF7F1DE30E5C80CD76AADE77EDD46CE285D PUSH0 DUP1 LOG3 STOP JUMPDEST CALLVALUE PUSH2 0xF9 JUMPI PUSH1 0xA0 CALLDATASIZE PUSH1 0x3 NOT ADD SLT PUSH2 0xF9 JUMPI PUSH2 0x209 PUSH2 0x867 JUMP JUMPDEST PUSH2 0x211 PUSH2 0x87D JUMP JUMPDEST PUSH1 0x44 CALLDATALOAD PUSH1 0x1 PUSH1 0x1 PUSH1 0xA0 SHL SUB DUP2 AND SWAP3 SWAP2 SWAP1 DUP4 SWAP1 SUB PUSH2 0xF9 JUMPI PUSH1 0x64 CALLDATALOAD SWAP1 PUSH1 0x84 CALLDATALOAD SWAP3 PUSH2 0x238 PUSH2 0x902 JUMP JUMPDEST PUSH1 0x2 PUSH1 0x1 SLOAD EQ PUSH2 0x470 JUMPI PUSH1 0x2 PUSH1 0x1 SSTORE DUP5 PUSH0 MSTORE PUSH1 0x3 PUSH1 0x20 MSTORE PUSH1 0xFF PUSH1 0x40 PUSH0 KECCAK256 SLOAD AND ISZERO PUSH2 0x461 JUMPI DUP5 PUSH0 MSTORE PUSH1 0x3 PUSH1 0x20 MSTORE PUSH1 0x1 PUSH1 0x40 PUSH0 KECCAK256 ADD SLOAD DUP5 LT PUSH2 0x452 JUMPI DUP3 PUSH0 MSTORE PUSH1 0x4 PUSH1 0x20 MSTORE PUSH1 0xFF PUSH1 0x40 PUSH0 KECCAK256 SLOAD AND ISZERO PUSH2 0x443 JUMPI PUSH1 0x40 DUP1 MLOAD PUSH1 0x1 PUSH1 0x1 PUSH1 0xA0 SHL SUB DUP4 DUP2 AND DUP3 MSTORE PUSH1 0x20 DUP3 ADD SWAP6 SWAP1 SWAP6 MSTORE PUSH0 SWAP5 DUP6 SWAP5 DUP8 SWAP4 DUP10 SWAP4 SWAP2 SWAP1 SWAP3 AND SWAP2 PUSH32 0xFCE60D6AFE1C2E85DF75301B872FB0A7E5F4A4BC87473DD2801024E9F6D91E47 SWAP2 LOG4 PUSH1 0x40 MLOAD PUSH4 0x23B872DD PUSH1 0xE0 SHL PUSH1 0x20 DUP3 ADD SWAP1 DUP2 MSTORE PUSH1 0x1 PUSH1 0x1 PUSH1 0xA0 SHL SUB SWAP1 SWAP3 AND PUSH1 0x24 DUP3 ADD MSTORE ADDRESS PUSH1 0x44 DUP3 ADD MSTORE PUSH1 0x64 DUP1 DUP3 ADD DUP7 SWAP1 MSTORE DUP2 MSTORE PUSH2 0x30D PUSH1 0x84 DUP3 PUSH2 0x8A2 JUMP JUMPDEST MLOAD SWAP1 DUP3 DUP7 GAS CALL RETURNDATASIZE ISZERO PUSH2 0x437 JUMPI RETURNDATASIZE PUSH8 0xFFFFFFFFFFFFFFFF DUP2 GT PUSH2 0x423 JUMPI PUSH2 0x355 SWAP2 PUSH1 0x40 MLOAD SWAP2 PUSH2 0x345 PUSH1 0x20 PUSH1 0x1F NOT PUSH1 0x1F DUP5 ADD AND ADD DUP5 PUSH2 0x8A2 JUMP JUMPDEST DUP3 MSTORE RETURNDATASIZE PUSH0 PUSH1 0x20 DUP5 ADD RETURNDATACOPY JUMPDEST DUP5 PUSH2 0x91F JUMP JUMPDEST DUP1 MLOAD SWAP1 DUP2 ISZERO ISZERO SWAP2 DUP3 PUSH2 0x408 JUMPI JUMPDEST POP POP PUSH2 0x3F5 JUMPI PUSH1 0x40 MLOAD PUSH4 0x2770A7EB PUSH1 0xE2 SHL DUP2 MSTORE ADDRESS PUSH1 0x4 DUP3 ADD MSTORE PUSH1 0x24 DUP2 ADD SWAP2 SWAP1 SWAP2 MSTORE SWAP1 PUSH1 0x20 SWAP1 DUP3 SWAP1 PUSH1 0x44 SWAP1 DUP3 SWAP1 PUSH0 SWAP1 GAS CALL SWAP1 DUP2 ISZERO PUSH2 0x3EA JUMPI PUSH0 SWAP2 PUSH2 0x3BB JUMPI JUMPDEST POP ISZERO PUSH2 0x3AC JUMPI PUSH1 0x1 DUP1 SSTORE STOP JUMPDEST PUSH4 0x2786EBF3 PUSH1 0xE1 SHL PUSH0 MSTORE PUSH1 0x4 PUSH0 REVERT JUMPDEST PUSH2 0x3DD SWAP2 POP PUSH1 0x20 RETURNDATASIZE PUSH1 0x20 GT PUSH2 0x3E3 JUMPI JUMPDEST PUSH2 0x3D5 DUP2 DUP4 PUSH2 0x8A2 JUMP JUMPDEST DUP2 ADD SWAP1 PUSH2 0x8C4 JUMP JUMPDEST DUP2 PUSH2 0x3A0 JUMP JUMPDEST POP RETURNDATASIZE PUSH2 0x3CB JUMP JUMPDEST PUSH1 0x40 MLOAD RETURNDATASIZE PUSH0 DUP3 RETURNDATACOPY RETURNDATASIZE SWAP1 REVERT JUMPDEST POP PUSH4 0x5274AFE7 PUSH1 0xE0 SHL PUSH0 MSTORE PUSH1 0x4 MSTORE PUSH1 0x24 PUSH0 REVERT JUMPDEST PUSH2 0x41B SWAP3 POP PUSH1 0x20 DUP1 SWAP2 DUP4 ADD ADD SWAP2 ADD PUSH2 0x8C4 JUMP JUMPDEST ISZERO DUP4 DUP1 PUSH2 0x362 JUMP JUMPDEST PUSH4 0x4E487B71 PUSH1 0xE0 SHL PUSH0 MSTORE PUSH1 0x41 PUSH1 0x4 MSTORE PUSH1 0x24 PUSH0 REVERT JUMPDEST PUSH2 0x355 SWAP1 PUSH1 0x60 SWAP1 PUSH2 0x34F JUMP JUMPDEST PUSH4 0x6747A721 PUSH1 0xE1 SHL PUSH0 MSTORE PUSH1 0x4 PUSH0 REVERT JUMPDEST PUSH4 0xD32E0C51 PUSH1 0xE0 SHL PUSH0 MSTORE PUSH1 0x4 PUSH0 REVERT JUMPDEST PUSH4 0x48DA253 PUSH1 0xE0 SHL PUSH0 MSTORE PUSH1 0x4 PUSH0 REVERT JUMPDEST PUSH4 0x3EE5AEB5 PUSH1 0xE0 SHL PUSH0 MSTORE PUSH1 0x4 PUSH0 REVERT JUMPDEST CALLVALUE PUSH2 0xF9 JUMPI PUSH1 0x60 CALLDATASIZE PUSH1 0x3 NOT ADD SLT PUSH2 0xF9 JUMPI PUSH2 0x498 PUSH2 0x867 JUMP JUMPDEST PUSH2 0x4A0 PUSH2 0x87D JUMP JUMPDEST PUSH1 0x44 CALLDATALOAD PUSH2 0x4AB PUSH2 0x902 JUMP JUMPDEST CALLER PUSH0 MSTORE PUSH1 0x2 PUSH1 0x20 MSTORE PUSH1 0xFF PUSH1 0x40 PUSH0 KECCAK256 SLOAD AND ISZERO PUSH2 0x585 JUMPI PUSH1 0x40 MLOAD CALLER DUP2 MSTORE PUSH2 0x53D SWAP4 PUSH1 0x20 SWAP4 PUSH1 0x1 PUSH1 0x1 PUSH1 0xA0 SHL SUB SWAP1 DUP2 AND SWAP3 DUP5 SWAP2 DUP5 SWAP2 SWAP1 DUP5 AND SWAP1 PUSH32 0xBB34554EC388E2BA6E0EC1EF6A4E36BED662BD388FDDF2B01482DB2F06A217FB SWAP1 DUP9 SWAP1 LOG4 PUSH1 0x40 MLOAD PUSH4 0x40C10F19 PUSH1 0xE0 SHL DUP2 MSTORE PUSH1 0x1 PUSH1 0x1 PUSH1 0xA0 SHL SUB SWAP1 SWAP2 AND PUSH1 0x4 DUP3 ADD MSTORE PUSH1 0x24 DUP2 ADD SWAP3 SWAP1 SWAP3 MSTORE SWAP1 SWAP3 DUP4 SWAP2 SWAP1 DUP3 SWAP1 PUSH0 SWAP1 DUP3 SWAP1 PUSH1 0x44 DUP3 ADD SWAP1 JUMP JUMPDEST SUB SWAP3 GAS CALL SWAP1 DUP2 ISZERO PUSH2 0x3EA JUMPI PUSH0 SWAP2 PUSH2 0x566 JUMPI JUMPDEST POP ISZERO PUSH2 0x557 JUMPI STOP JUMPDEST PUSH4 0x1D5FEEBB PUSH1 0xE2 SHL PUSH0 MSTORE PUSH1 0x4 PUSH0 REVERT JUMPDEST PUSH2 0x57F SWAP2 POP PUSH1 0x20 RETURNDATASIZE PUSH1 0x20 GT PUSH2 0x3E3 JUMPI PUSH2 0x3D5 DUP2 DUP4 PUSH2 0x8A2 JUMP JUMPDEST DUP2 PUSH2 0x54F JUMP JUMPDEST PUSH4 0xFE41F947 PUSH1 0xE0 SHL PUSH0 MSTORE PUSH1 0x4 PUSH0 REVERT JUMPDEST CALLVALUE PUSH2 0xF9 JUMPI PUSH1 0x20 CALLDATASIZE PUSH1 0x3 NOT ADD SLT PUSH2 0xF9 JUMPI PUSH1 0x4 CALLDATALOAD PUSH0 MSTORE PUSH1 0x4 PUSH1 0x20 MSTORE PUSH1 0x20 PUSH1 0xFF PUSH1 0x40 PUSH0 KECCAK256 SLOAD AND PUSH1 0x40 MLOAD SWAP1 ISZERO ISZERO DUP2 MSTORE RETURN JUMPDEST CALLVALUE PUSH2 0xF9 JUMPI PUSH0 CALLDATASIZE PUSH1 0x3 NOT ADD SLT PUSH2 0xF9 JUMPI PUSH0 SLOAD PUSH1 0x40 MLOAD PUSH1 0x1 PUSH1 0x1 PUSH1 0xA0 SHL SUB SWAP1 SWAP2 AND DUP2 MSTORE PUSH1 0x20 SWAP1 RETURN JUMPDEST CALLVALUE PUSH2 0xF9 JUMPI PUSH0 CALLDATASIZE PUSH1 0x3 NOT ADD SLT PUSH2 0xF9 JUMPI PUSH2 0x602 PUSH2 0x8DC JUMP JUMPDEST PUSH2 0x60A PUSH2 0x902 JUMP JUMPDEST PUSH0 DUP1 SLOAD PUSH1 0xFF PUSH1 0xA0 SHL NOT AND PUSH1 0x1 PUSH1 0xA0 SHL OR SWAP1 SSTORE PUSH1 0x40 MLOAD CALLER DUP2 MSTORE PUSH32 0x62E78CEA01BEE320CD4E420270B5EA74000D11B0C9F74754EBDBFC544B05A258 SWAP1 PUSH1 0x20 SWAP1 LOG1 STOP JUMPDEST CALLVALUE PUSH2 0xF9 JUMPI PUSH1 0x20 CALLDATASIZE PUSH1 0x3 NOT ADD SLT PUSH2 0xF9 JUMPI PUSH1 0x1 PUSH1 0x1 PUSH1 0xA0 SHL SUB PUSH2 0x66B PUSH2 0x867 JUMP JUMPDEST AND PUSH0 MSTORE PUSH1 0x2 PUSH1 0x20 MSTORE PUSH1 0x20 PUSH1 0xFF PUSH1 0x40 PUSH0 KECCAK256 SLOAD AND PUSH1 0x40 MLOAD SWAP1 ISZERO ISZERO DUP2 MSTORE RETURN JUMPDEST CALLVALUE PUSH2 0xF9 JUMPI PUSH0 CALLDATASIZE PUSH1 0x3 NOT ADD SLT PUSH2 0xF9 JUMPI PUSH2 0x69F PUSH2 0x8DC JUMP JUMPDEST PUSH0 DUP1 SLOAD PUSH1 0x1 PUSH1 0x1 PUSH1 0xA0 SHL SUB NOT DUP2 AND DUP3 SSTORE PUSH1 0x1 PUSH1 0x1 PUSH1 0xA0 SHL SUB AND PUSH32 0x8BE0079C531659141344CD1FD0A4F28419497F9722A3DAAFE3B4186F6B6457E0 DUP3 DUP1 LOG3 STOP JUMPDEST CALLVALUE PUSH2 0xF9 JUMPI PUSH0 CALLDATASIZE PUSH1 0x3 NOT ADD SLT PUSH2 0xF9 JUMPI PUSH1 0x20 PUSH1 0xFF PUSH0 SLOAD PUSH1 0xA0 SHR AND PUSH1 0x40 MLOAD SWAP1 ISZERO ISZERO DUP2 MSTORE RETURN JUMPDEST CALLVALUE PUSH2 0xF9 JUMPI PUSH1 0x60 CALLDATASIZE PUSH1 0x3 NOT ADD SLT PUSH2 0xF9 JUMPI PUSH2 0x71B PUSH2 0x867 JUMP JUMPDEST PUSH2 0x723 PUSH2 0x893 JUMP JUMPDEST PUSH1 0x44 CALLDATALOAD SWAP2 PUSH2 0x72F PUSH2 0x8DC JUMP JUMPDEST PUSH1 0x1 PUSH1 0x1 PUSH1 0xA0 SHL SUB AND PUSH0 DUP2 DUP2 MSTORE PUSH1 0x3 PUSH1 0x20 MSTORE PUSH1 0x40 DUP2 KECCAK256 DUP1 SLOAD PUSH1 0xFF NOT AND PUSH1 0xFF SWAP5 ISZERO ISZERO SWAP5 DUP6 AND OR DUP2 SSTORE PUSH1 0x1 ADD DUP5 SWAP1 SSTORE PUSH32 0xEFA900EF438B733EFC4EADCC27CC14BFCCB8608CEF912F558F3C86A4076099D1 SWAP1 DUP1 LOG4 STOP JUMPDEST CALLVALUE PUSH2 0xF9 JUMPI PUSH0 CALLDATASIZE PUSH1 0x3 NOT ADD SLT PUSH2 0xF9 JUMPI PUSH2 0x79A PUSH2 0x8DC JUMP JUMPDEST PUSH0 SLOAD PUSH1 0xFF DUP2 PUSH1 0xA0 SHR AND ISZERO PUSH2 0x7DF JUMPI PUSH1 0xFF PUSH1 0xA0 SHL NOT AND PUSH0 SSTORE PUSH1 0x40 MLOAD CALLER DUP2 MSTORE PUSH32 0x5DB9EE0A495BF2E6FF9C91A7834C1BA4FDD244A5E8AA4E537BD38AEAE4B073AA SWAP1 PUSH1 0x20 SWAP1 LOG1 STOP JUMPDEST PUSH4 0x8DFC202B PUSH1 0xE0 SHL PUSH0 MSTORE PUSH1 0x4 PUSH0 REVERT JUMPDEST CALLVALUE PUSH2 0xF9 JUMPI PUSH1 0x40 CALLDATASIZE PUSH1 0x3 NOT ADD SLT PUSH2 0xF9 JUMPI PUSH2 0x807 PUSH2 0x867 JUMP JUMPDEST PUSH2 0x80F PUSH2 0x893 JUMP JUMPDEST SWAP1 PUSH2 0x818 PUSH2 0x8DC JUMP JUMPDEST PUSH1 0x1 PUSH1 0x1 PUSH1 0xA0 SHL SUB AND PUSH0 DUP2 DUP2 MSTORE PUSH1 0x2 PUSH1 0x20 MSTORE PUSH1 0x40 SWAP1 KECCAK256 DUP1 SLOAD PUSH1 0xFF NOT AND PUSH1 0xFF DUP5 ISZERO ISZERO AND OR SWAP1 SSTORE SWAP1 ISZERO ISZERO SWAP1 PUSH32 0xAA9D33808A902414231BA2E4657B33F5CEE83469964BC14260B5C4BB54378209 PUSH0 DUP1 LOG3 STOP JUMPDEST PUSH1 0x4 CALLDATALOAD SWAP1 PUSH1 0x1 PUSH1 0x1 PUSH1 0xA0 SHL SUB DUP3 AND DUP3 SUB PUSH2 0xF9 JUMPI JUMP JUMPDEST PUSH1 0x24 CALLDATALOAD SWAP1 PUSH1 0x1 PUSH1 0x1 PUSH1 0xA0 SHL SUB DUP3 AND DUP3 SUB PUSH2 0xF9 JUMPI JUMP JUMPDEST PUSH1 0x24 CALLDATALOAD SWAP1 DUP2 ISZERO ISZERO DUP3 SUB PUSH2 0xF9 JUMPI JUMP JUMPDEST SWAP1 PUSH1 0x1F DUP1 NOT SWAP2 ADD AND DUP2 ADD SWAP1 DUP2 LT PUSH8 0xFFFFFFFFFFFFFFFF DUP3 GT OR PUSH2 0x423 JUMPI PUSH1 0x40 MSTORE JUMP JUMPDEST SWAP1 DUP2 PUSH1 0x20 SWAP2 SUB SLT PUSH2 0xF9 JUMPI MLOAD DUP1 ISZERO ISZERO DUP2 SUB PUSH2 0xF9 JUMPI SWAP1 JUMP JUMPDEST PUSH0 SLOAD PUSH1 0x1 PUSH1 0x1 PUSH1 0xA0 SHL SUB AND CALLER SUB PUSH2 0x8EF JUMPI JUMP JUMPDEST PUSH4 0x118CDAA7 PUSH1 0xE0 SHL PUSH0 MSTORE CALLER PUSH1 0x4 MSTORE PUSH1 0x24 PUSH0 REVERT JUMPDEST PUSH1 0xFF PUSH0 SLOAD PUSH1 0xA0 SHR AND PUSH2 0x910 JUMPI JUMP JUMPDEST PUSH4 0xD93C0665 PUSH1 0xE0 SHL PUSH0 MSTORE PUSH1 0x4 PUSH0 REVERT JUMPDEST SWAP1 PUSH2 0x943 JUMPI POP DUP1 MLOAD ISZERO PUSH2 0x934 JUMPI DUP1 MLOAD SWAP1 PUSH1 0x20 ADD REVERT JUMPDEST PUSH4 0xA12F521 PUSH1 0xE1 SHL PUSH0 MSTORE PUSH1 0x4 PUSH0 REVERT JUMPDEST DUP2 MLOAD ISZERO DUP1 PUSH2 0x974 JUMPI JUMPDEST PUSH2 0x954 JUMPI POP SWAP1 JUMP JUMPDEST PUSH4 0x9996B315 PUSH1 0xE0 SHL PUSH0 SWAP1 DUP2 MSTORE PUSH1 0x1 PUSH1 0x1 PUSH1 0xA0 SHL SUB SWAP2 SWAP1 SWAP2 AND PUSH1 0x4 MSTORE PUSH1 0x24 SWAP1 REVERT JUMPDEST POP DUP1 EXTCODESIZE ISZERO PUSH2 0x94C JUMP INVALID LOG2 PUSH5 0x6970667358 0x22 SLT KECCAK256 DUP11 0xB4 SMOD SWAP6 CALLDATACOPY PUSH2 0x10FD 0xF9 0xD0 CALLCODE PUSH4 0xE17B6F7A JUMPI ADDMOD 0xE5 SWAP15 0x4F 0x4F LOG1 0xC5 JUMPI POP 0xCA PUSH11 0xC26634B064736F6C634300 ADDMOD SHL STOP CALLER "
        },
        "methodIdentifiers": {
          "bridgeTokens(address,address,address,uint256,uint256)": "cf222eae",
          "isChainAllowed(uint256)": "9b400faa",
          "isTokenAllowed(address)": "f9eaee0d",
          "mintTokenToUserAfterBridge(address,address,uint256)": "ab496f67",
          "owner()": "8da5cb5b",
          "pause()": "8456cb59",
          "paused()": "5c975abb",
          "renounceOwnership()": "715018a6",
          "setAllowedChain(uint256,bool)": "dafca148",
          "setAllowedToken(address,bool,uint256)": "5b45b88d",
          "setSigner(address,bool)": "31cb6105",
          "signers(address)": "736c0d5b",
          "transferOwnership(address)": "f2fde38b",
          "unpause()": "3f4ba83a"
        }
      }
    }
  }
}