{
  "_format": "hh-sol-artifact-1",
  "contractName": "MyERC20Token",
  "sourceName": "contracts/ERC20.sol",
  "abi": [
    {
      "inputs": [],
      "stateMutability": "nonpayable",
      "type": "constructor"
    },
    {
      "inputs": [
        {
          "internalType": "address",
          "name": "spender",
          "type": "address"
        },
        {
          "internalType": "uint256",
          "name": "allowance",
          "type": "uint256"
        },
        {
          "internalType": "uint256",
          "name": "needed",
          "type": "uint256"
        }
      ],
      "name": "ERC20InsufficientAllowance",
      "type": "error"
    },
    {
      "inputs": [
        {
          "internalType": "address",
          "name": "sender",
          "type": "address"
        },
        {
          "internalType": "uint256",
          "name": "balance",
          "type": "uint256"
        },
        {
          "internalType": "uint256",
          "name": "needed",
          "type": "uint256"
        }
      ],
      "name": "ERC20InsufficientBalance",
      "type": "error"
    },
    {
      "inputs": [
        {
          "internalType": "address",
          "name": "approver",
          "type": "address"
        }
      ],
      "name": "ERC20InvalidApprover",
      "type": "error"
    },
    {
      "inputs": [
        {
          "internalType": "address",
          "name": "receiver",
          "type": "address"
        }
      ],
      "name": "ERC20InvalidReceiver",
      "type": "error"
    },
    {
      "inputs": [
        {
          "internalType": "address",
          "name": "sender",
          "type": "address"
        }
      ],
      "name": "ERC20InvalidSender",
      "type": "error"
    },
    {
      "inputs": [
        {
          "internalType": "address",
          "name": "spender",
          "type": "address"
        }
      ],
      "name": "ERC20InvalidSpender",
      "type": "error"
    },
    {
      "inputs": [],
      "name": "Token__OnlyAuthorizedCallers",
      "type": "error"
    },
    {
      "anonymous": false,
      "inputs": [
        {
          "indexed": true,
          "internalType": "address",
          "name": "owner",
          "type": "address"
        },
        {
          "indexed": true,
          "internalType": "address",
          "name": "spender",
          "type": "address"
        },
        {
          "indexed": false,
          "internalType": "uint256",
          "name": "value",
          "type": "uint256"
        }
      ],
      "name": "Approval",
      "type": "event"
    },
    {
      "anonymous": false,
      "inputs": [
        {
          "indexed": true,
          "internalType": "address",
          "name": "from",
          "type": "address"
        },
        {
          "indexed": true,
          "internalType": "address",
          "name": "to",
          "type": "address"
        },
        {
          "indexed": false,
          "internalType": "uint256",
          "name": "value",
          "type": "uint256"
        }
      ],
      "name": "Transfer",
      "type": "event"
    },
    {
      "inputs": [
        {
          "internalType": "address",
          "name": "owner",
          "type": "address"
        },
        {
          "internalType": "address",
          "name": "spender",
          "type": "address"
        }
      ],
      "name": "allowance",
      "outputs": [
        {
          "internalType": "uint256",
          "name": "",
          "type": "uint256"
        }
      ],
      "stateMutability": "view",
      "type": "function"
    },
    {
      "inputs": [
        {
          "internalType": "address",
          "name": "spender",
          "type": "address"
        },
        {
          "internalType": "uint256",
          "name": "value",
          "type": "uint256"
        }
      ],
      "name": "approve",
      "outputs": [
        {
          "internalType": "bool",
          "name": "",
          "type": "bool"
        }
      ],
      "stateMutability": "nonpayable",
      "type": "function"
    },
    {
      "inputs": [
        {
          "internalType": "address",
          "name": "account",
          "type": "address"
        }
      ],
      "name": "balanceOf",
      "outputs": [
        {
          "internalType": "uint256",
          "name": "",
          "type": "uint256"
        }
      ],
      "stateMutability": "view",
      "type": "function"
    },
    {
      "inputs": [],
      "name": "bridge",
      "outputs": [
        {
          "internalType": "address",
          "name": "",
          "type": "address"
        }
      ],
      "stateMutability": "view",
      "type": "function"
    },
    {
      "inputs": [
        {
          "internalType": "address",
          "name": "from",
          "type": "address"
        },
        {
          "internalType": "uint256",
          "name": "amount",
          "type": "uint256"
        }
      ],
      "name": "burn",
      "outputs": [
        {
          "internalType": "bool",
          "name": "status",
          "type": "bool"
        }
      ],
      "stateMutability": "nonpayable",
      "type": "function"
    },
    {
      "inputs": [],
      "name": "decimals",
      "outputs": [
        {
          "internalType": "uint8",
          "name": "",
          "type": "uint8"
        }
      ],
      "stateMutability": "view",
      "type": "function"
    },
    {
      "inputs": [
        {
          "internalType": "address",
          "name": "to",
          "type": "address"
        },
        {
          "internalType": "uint256",
          "name": "amount",
          "type": "uint256"
        }
      ],
      "name": "mint",
      "outputs": [
        {
          "internalType": "bool",
          "name": "status",
          "type": "bool"
        }
      ],
      "stateMutability": "nonpayable",
      "type": "function"
    },
    {
      "inputs": [],
      "name": "name",
      "outputs": [
        {
          "internalType": "string",
          "name": "",
          "type": "string"
        }
      ],
      "stateMutability": "view",
      "type": "function"
    },
    {
      "inputs": [],
      "name": "owner",
      "outputs": [
        {
          "internalType": "address",
          "name": "",
          "type": "address"
        }
      ],
      "stateMutability": "view",
      "type": "function"
    },
    {
      "inputs": [
        {
          "internalType": "address",
          "name": "_bridgeAddress",
          "type": "address"
        }
      ],
      "name": "setUpBridge",
      "outputs": [],
      "stateMutability": "nonpayable",
      "type": "function"
    },
    {
      "inputs": [],
      "name": "symbol",
      "outputs": [
        {
          "internalType": "string",
          "name": "",
          "type": "string"
        }
      ],
      "stateMutability": "view",
      "type": "function"
    },
    {
      "inputs": [],
      "name": "totalSupply",
      "outputs": [
        {
          "internalType": "uint256",
          "name": "",
          "type": "uint256"
        }
      ],
      "stateMutability": "view",
      "type": "function"
    },
    {
      "inputs": [
        {
          "internalType": "address",
          "name": "to",
          "type": "address"
        },
        {
          "internalType": "uint256",
          "name": "value",
          "type": "uint256"
        }
      ],
      "name": "transfer",
      "outputs": [
        {
          "internalType": "bool",
          "name": "",
          "type": "bool"
        }
      ],
      "stateMutability": "nonpayable",
      "type": "function"
    },
    {
      "inputs": [
        {
          "internalType": "address",
          "name": "from",
          "type": "address"
        },
        {
          "internalType": "address",
          "name": "to",
          "type": "address"
        },
        {
          "internalType": "uint256",
          "name": "value",
          "type": "uint256"
        }
      ],
      "name": "transferFrom",
      "outputs": [
        {
          "internalType": "bool",
          "name": "",
          "type": "bool"
        }
      ],
      "stateMutability": "nonpayable",
      "type": "function"
    }
  ],
  "bytecode": "0x60a06040523461033a57604080519081016001600160401b0381118282101761024d576040908152600c82526b14d85b9a5adcda5b881554d160a21b602083015280519081016001600160401b0381118282101761024d57604052600681526514d85b9554d160d21b602082015281516001600160401b03811161024d57600354600181811c91168015610330575b602082101461022f57601f81116102cd575b50602092601f821160011461026c57928192935f92610261575b50508160011b915f199060031b1c1916176003555b80516001600160401b03811161024d57600454600181811c91168015610243575b602082101461022f57601f81116101cc575b50602091601f821160011461016c579181925f92610161575b50508160011b915f199060031b1c1916176004555b33608052604051610918908161033f823960805181818161014e015281816102190152818161042d01526104b30152f35b015190505f8061011b565b601f1982169260045f52805f20915f5b8581106101b45750836001951061019c575b505050811b01600455610130565b01515f1960f88460031b161c191690555f808061018e565b9192602060018192868501518155019401920161017c565b60045f527f8a35acfbc15ff81a39ae7d344fd709f28e8600b4aa8c65c6b64bfe7fe36bd19b601f830160051c81019160208410610225575b601f0160051c01905b81811061021a5750610102565b5f815560010161020d565b9091508190610204565b634e487b7160e01b5f52602260045260245ffd5b90607f16906100f0565b634e487b7160e01b5f52604160045260245ffd5b015190505f806100ba565b601f1982169360035f52805f20915f5b8681106102b5575083600195961061029d575b505050811b016003556100cf565b01515f1960f88460031b161c191690555f808061028f565b9192602060018192868501518155019401920161027c565b60035f527fc2575a0e9e593c00f959f8c92f12db2869c3395a3b0502d05e2516446f71f85b601f830160051c81019160208410610326575b601f0160051c01905b81811061031b57506100a0565b5f815560010161030e565b9091508190610305565b90607f169061008e565b5f80fdfe6080806040526004361015610012575f80fd5b5f3560e01c90816306fdde031461072657508063095ea7b3146106a457806318160ddd1461068757806323b872dd146105a7578063313ce5671461058c57806340c10f191461049357806370a082311461045c5780638da5cb5b1461041857806395d89b41146102fd5780639dc29fac146101f9578063a9059cbb146101c8578063ac795c9314610132578063dd62ed3e146100e25763e78cea92146100b6575f80fd5b346100de575f3660031901126100de576005546040516001600160a01b039091168152602090f35b5f80fd5b346100de5760403660031901126100de576100fb61081f565b610103610835565b6001600160a01b039182165f908152600160209081526040808320949093168252928352819020549051908152f35b346100de5760203660031901126100de5761014b61081f565b337f00000000000000000000000000000000000000000000000000000000000000006001600160a01b03161480156101b4575b156101a557600580546001600160a01b0319166001600160a01b0392909216919091179055005b6371006b1f60e11b5f5260045ffd5b506005546001600160a01b0316331461017e565b346100de5760403660031901126100de576101ee6101e461081f565b602435903361084b565b602060405160018152f35b346100de5760403660031901126100de5761021261081f565b60243590337f00000000000000000000000000000000000000000000000000000000000000006001600160a01b03161480156102e9575b156101a5576001600160a01b031680156102d657805f525f60205260405f20548281106102bd576020835f947fddf252ad1be2c89b69c2b068fc378daa952ba7f163c4a11628f55a4df523b3ef938587528684520360408620558060025403600255604051908152a3602060405160018152f35b9063391434e360e21b5f5260045260245260445260645ffd5b634b637e8f60e11b5f525f60045260245ffd5b506005546001600160a01b03163314610249565b346100de575f3660031901126100de576040515f6004548060011c9060018116801561040e575b6020831081146103fa578285529081156103de5750600114610389575b50819003601f01601f191681019067ffffffffffffffff82118183101761037557610371829182604052826107f5565b0390f35b634e487b7160e01b5f52604160045260245ffd5b905060045f527f8a35acfbc15ff81a39ae7d344fd709f28e8600b4aa8c65c6b64bfe7fe36bd19b5f905b8282106103c857506020915082010182610341565b60018160209254838588010152019101906103b3565b90506020925060ff191682840152151560051b82010182610341565b634e487b7160e01b5f52602260045260245ffd5b91607f1691610324565b346100de575f3660031901126100de576040517f00000000000000000000000000000000000000000000000000000000000000006001600160a01b03168152602090f35b346100de5760203660031901126100de576001600160a01b0361047d61081f565b165f525f602052602060405f2054604051908152f35b346100de5760403660031901126100de576104ac61081f565b60243590337f00000000000000000000000000000000000000000000000000000000000000006001600160a01b0316148015610578575b156101a5576001600160a01b031690811561056557600254908082018092116105515760207fddf252ad1be2c89b69c2b068fc378daa952ba7f163c4a11628f55a4df523b3ef915f9360025584845283825260408420818154019055604051908152a3602060405160018152f35b634e487b7160e01b5f52601160045260245ffd5b63ec442f0560e01b5f525f60045260245ffd5b506005546001600160a01b031633146104e3565b346100de575f3660031901126100de57602060405160128152f35b346100de5760603660031901126100de576105c061081f565b6105c8610835565b6001600160a01b0382165f818152600160208181526040808420338552909152909120549193604435939290918101610607575b506101ee935061084b565b83811061066c578415610659573315610646576101ee945f52600160205260405f2060018060a01b0333165f526020528360405f2091039055846105fc565b634a1406b160e11b5f525f60045260245ffd5b63e602df0560e01b5f525f60045260245ffd5b8390637dc7a0d960e11b5f523360045260245260445260645ffd5b346100de575f3660031901126100de576020600254604051908152f35b346100de5760403660031901126100de576106bd61081f565b602435903315610659576001600160a01b031690811561064657335f52600160205260405f20825f526020528060405f20556040519081527f8c5be1e5ebec7d5bd14f71427d1e84f3dd0314c0f7b2291e5b200ac8c7c3b92560203392a3602060405160018152f35b346100de575f3660031901126100de575f6003548060011c906001811680156107eb575b6020831081146103fa578285529081156103de57506001146107965750819003601f01601f191681019067ffffffffffffffff82118183101761037557610371829182604052826107f5565b905060035f527fc2575a0e9e593c00f959f8c92f12db2869c3395a3b0502d05e2516446f71f85b5f905b8282106107d557506020915082010182610341565b60018160209254838588010152019101906107c0565b91607f169161074a565b602060409281835280519182918282860152018484015e5f828201840152601f01601f1916010190565b600435906001600160a01b03821682036100de57565b602435906001600160a01b03821682036100de57565b6001600160a01b03169081156102d6576001600160a01b031691821561056557815f525f60205260405f20548181106108c957817fddf252ad1be2c89b69c2b068fc378daa952ba7f163c4a11628f55a4df523b3ef92602092855f525f84520360405f2055845f525f825260405f20818154019055604051908152a3565b8263391434e360e21b5f5260045260245260445260645ffdfea26469706673582212204512b4760b0380a5f4e0bd8f9e0924dd18a1ce33f203bbcedfbeec8a07c01d2664736f6c634300081b0033",
  "linkReferences": {},
  "deployedLinkReferences": {}
}